{
  "hash": "0xac204139dec2d322ed40e24be9af205fb417cc59ab2a78e7e784ee9ad2cc4163",
  "blockHash": null,
  "blockNumber": null,
  "transactionIndex": null,
  "confirmations": 0,
  "from": "0x5197B5b062288Bbf29008C92B08010a92Dd677CD",
  "gasPrice": {
    "_hex": "0x4a817c800"
  },
  "gasLimit": {
    "_hex": "0x7d30"
  },
  "to": "0xaD6D458402F60fD3Bd25163575031ACDce07538D",
  "value": {
    "_hex": "0x0"
  },
  "nonce": 25,
  "data": "0xa9059cbb0000000000000000000000005197b5b062288bbf29008c92b08010a92dd677cd000000000000000000000000000000000000000000000000002386f26fc10000",
  "r": "0x4a7a33d7f27256f2254fd5c73386edfa6868ec4e290fe1a3044ec8a0804a111a",
  "s": "0x08df3c5d719ce3749a9cb3ca399638d161b508203a309b8b35cb9c58533e2e69",
  "v": 42,
  "creates": null,
  "raw": "0xf8a9198504a817c800827d3094ad6d458402f60fd3bd25163575031acdce07538d80b844a9059cbb0000000000000000000000005197b5b062288bbf29008c92b08010a92dd677cd000000000000000000000000000000000000000000000000002386f26fc100002aa04a7a33d7f27256f2254fd5c73386edfa6868ec4e290fe1a3044ec8a0804a111aa008df3c5d719ce3749a9cb3ca399638d161b508203a309b8b35cb9c58533e2e69",
  "networkId": 3,
  "chainId": 3
}
